{
  "contractName": "RockPaperScissors",
  "abi": [
    {
      "anonymous": false,
      "inputs": [
        {
          "indexed": false,
          "internalType": "address",
          "name": "player1",
          "type": "address"
        },
        {
          "indexed": false,
          "internalType": "address",
          "name": "player2",
          "type": "address"
        }
      ],
      "name": "GameCreated",
      "type": "event"
    },
    {
      "anonymous": false,
      "inputs": [
        {
          "indexed": false,
          "internalType": "string",
          "name": "message",
          "type": "string"
        }
      ],
      "name": "GameFinished",
      "type": "event"
    },
    {
      "anonymous": false,
      "inputs": [
        {
          "indexed": true,
          "internalType": "address",
          "name": "previousOwner",
          "type": "address"
        },
        {
          "indexed": true,
          "internalType": "address",
          "name": "newOwner",
          "type": "address"
        }
      ],
      "name": "OwnershipTransferred",
      "type": "event"
    },
    {
      "anonymous": false,
      "inputs": [
        {
          "indexed": false,
          "internalType": "string",
          "name": "message",
          "type": "string"
        }
      ],
      "name": "WithdrawalMade",
      "type": "event"
    },
    {
      "inputs": [],
      "name": "betFee",
      "outputs": [
        {
          "internalType": "uint72",
          "name": "",
          "type": "uint72"
        }
      ],
      "stateMutability": "view",
      "type": "function"
    },
    {
      "inputs": [],
      "name": "deadline",
      "outputs": [
        {
          "internalType": "uint8",
          "name": "",
          "type": "uint8"
        }
      ],
      "stateMutability": "view",
      "type": "function"
    },
    {
      "inputs": [],
      "name": "owner",
      "outputs": [
        {
          "internalType": "address",
          "name": "",
          "type": "address"
        }
      ],
      "stateMutability": "view",
      "type": "function"
    },
    {
      "inputs": [],
      "name": "renounceOwnership",
      "outputs": [],
      "stateMutability": "nonpayable",
      "type": "function"
    },
    {
      "inputs": [],
      "name": "tokenAddress",
      "outputs": [
        {
          "internalType": "address",
          "name": "",
          "type": "address"
        }
      ],
      "stateMutability": "view",
      "type": "function"
    },
    {
      "inputs": [
        {
          "internalType": "address",
          "name": "newOwner",
          "type": "address"
        }
      ],
      "name": "transferOwnership",
      "outputs": [],
      "stateMutability": "nonpayable",
      "type": "function"
    },
    {
      "inputs": [
        {
          "internalType": "address",
          "name": "_opponent",
          "type": "address"
        },
        {
          "internalType": "enum RockPaperScissors.Move",
          "name": "_move",
          "type": "uint8"
        },
        {
          "internalType": "bool",
          "name": "_useWinings",
          "type": "bool"
        }
      ],
      "name": "createGame",
      "outputs": [],
      "stateMutability": "payable",
      "type": "function"
    },
    {
      "inputs": [
        {
          "internalType": "address",
          "name": "_opponent",
          "type": "address"
        }
      ],
      "name": "gameStatus",
      "outputs": [
        {
          "internalType": "string",
          "name": "message",
          "type": "string"
        }
      ],
      "stateMutability": "view",
      "type": "function"
    },
    {
      "inputs": [
        {
          "internalType": "address",
          "name": "_opponent",
          "type": "address"
        }
      ],
      "name": "finishGame",
      "outputs": [],
      "stateMutability": "nonpayable",
      "type": "function"
    },
    {
      "inputs": [],
      "name": "getBalance",
      "outputs": [
        {
          "internalType": "uint72",
          "name": "tokensBalance",
          "type": "uint72"
        }
      ],
      "stateMutability": "view",
      "type": "function"
    },
    {
      "inputs": [],
      "name": "withdrawal",
      "outputs": [],
      "stateMutability": "nonpayable",
      "type": "function"
    },
    {
      "inputs": [
        {
          "internalType": "uint8",
          "name": "_deadline",
          "type": "uint8"
        }
      ],
      "name": "setDeadline",
      "outputs": [],
      "stateMutability": "nonpayable",
      "type": "function"
    },
    {
      "inputs": [
        {
          "internalType": "uint72",
          "name": "_betFee",
          "type": "uint72"
        }
      ],
      "name": "setBetFee",
      "outputs": [],
      "stateMutability": "nonpayable",
      "type": "function"
    },
    {
      "inputs": [],
      "name": "destroySmartContract",
      "outputs": [],
      "stateMutability": "nonpayable",
      "type": "function"
    }
  ],
  "bytecode": "0x6080604052605a600360006101000a81548160ff021916908360ff160217905550670de0b6b3a7640000600360016101000a81548168ffffffffffffffffff021916908368ffffffffffffffffff160217905550738301f2213c0eed49a7e28ae4c3e91722919b8b476003600a6101000a81548173ffffffffffffffffffffffffffffffffffffffff021916908373ffffffffffffffffffffffffffffffffffffffff160217905550348015620000b557600080fd5b50620000d6620000ca620000dc60201b60201c565b620000e460201b60201c565b620001a8565b600033905090565b60008060009054906101000a900473ffffffffffffffffffffffffffffffffffffffff169050816000806101000a81548173ffffffffffffffffffffffffffffffffffffffff021916908373ffffffffffffffffffffffffffffffffffffffff1602179055508173ffffffffffffffffffffffffffffffffffffffff168173ffffffffffffffffffffffffffffffffffffffff167f8be0079c531659141344cd1fd0a4f28419497f9722a3daafe3b4186f6b6457e060405160405180910390a35050565b61377e80620001b86000396000f3fe6080604052600436106100dd5760003560e01c80638da5cb5b1161007f578063d4e9329211610059578063d4e9329214610255578063d59a91621461026c578063e9652a19146102a9578063f2fde38b146102d2576100dd565b80638da5cb5b146101d65780639d76ea5814610201578063cd0cb0161461022c576100dd565b8063800f7ef6116100bb578063800f7ef61461014f578063841e6ce91461017857806385474728146101a35780638cc01807146101ba576100dd565b806312065fe0146100e257806329dcb0cf1461010d578063715018a614610138575b600080fd5b3480156100ee57600080fd5b506100f76102fb565b60405161010491906133ac565b60405180910390f35b34801561011957600080fd5b50610122610357565b60405161012f91906133c7565b60405180910390f35b34801561014457600080fd5b5061014d61036a565b005b34801561015b57600080fd5b5061017660048036038101906101719190612971565b6103f2565b005b34801561018457600080fd5b5061018d61049c565b60405161019a91906133ac565b60405180910390f35b3480156101af57600080fd5b506101b86104b7565b005b6101d460048036038101906101cf91906128f9565b61054c565b005b3480156101e257600080fd5b506101eb610c4e565b6040516101f891906130a6565b60405180910390f35b34801561020d57600080fd5b50610216610c77565b60405161022391906130a6565b60405180910390f35b34801561023857600080fd5b50610253600480360381019061024e919061299a565b610c9d565b005b34801561026157600080fd5b5061026a610d7e565b005b34801561027857600080fd5b50610293600480360381019061028e91906128d0565b610f5c565b6040516102a0919061314a565b60405180910390f35b3480156102b557600080fd5b506102d060048036038101906102cb91906128d0565b6113d2565b005b3480156102de57600080fd5b506102f960048036038101906102f491906128d0565b611a0b565b005b6000600260003373ffffffffffffffffffffffffffffffffffffffff1673ffffffffffffffffffffffffffffffffffffffff16815260200190815260200160002060009054906101000a900468ffffffffffffffffff16905090565b600360009054906101000a900460ff1681565b610372611b03565b73ffffffffffffffffffffffffffffffffffffffff16610390610c4e565b73ffffffffffffffffffffffffffffffffffffffff16146103e6576040517f08c379a00000000000000000000000000000000000000000000000000000000081526004016103dd9061330c565b60405180910390fd5b6103f06000611b0b565b565b6103fa611b03565b73ffffffffffffffffffffffffffffffffffffffff16610418610c4e565b73ffffffffffffffffffffffffffffffffffffffff161461046e576040517f08c379a00000000000000000000000000000000000000000000000000000000081526004016104659061330c565b60405180910390fd5b80600360016101000a81548168ffffffffffffffffff021916908368ffffffffffffffffff16021790555050565b600360019054906101000a900468ffffffffffffffffff1681565b6104bf611b03565b73ffffffffffffffffffffffffffffffffffffffff166104dd610c4e565b73ffffffffffffffffffffffffffffffffffffffff1614610533576040517f08c379a000000000000000000000000000000000000000000000000000000000815260040161052a9061330c565b60405180910390fd5b3373ffffffffffffffffffffffffffffffffffffffff16ff5b823373ffffffffffffffffffffffffffffffffffffffff168173ffffffffffffffffffffffffffffffffffffffff1614156105bc576040517f08c379a00000000000000000000000000000000000000000000000000000000081526004016105b3906131ac565b60405180910390fd5b600073ffffffffffffffffffffffffffffffffffffffff16600160003373ffffffffffffffffffffffffffffffffffffffff1673ffffffffffffffffffffffffffffffffffffffff16815260200190815260200160002060000160009054906101000a900473ffffffffffffffffffffffffffffffffffffffff1673ffffffffffffffffffffffffffffffffffffffff161461068d576040517f08c379a00000000000000000000000000000000000000000000000000000000081526004016106849061334c565b60405180910390fd5b600073ffffffffffffffffffffffffffffffffffffffff16600160008673ffffffffffffffffffffffffffffffffffffffff1673ffffffffffffffffffffffffffffffffffffffff16815260200190815260200160002060000160009054906101000a900473ffffffffffffffffffffffffffffffffffffffff1673ffffffffffffffffffffffffffffffffffffffff16146107f4573373ffffffffffffffffffffffffffffffffffffffff16600160008673ffffffffffffffffffffffffffffffffffffffff1673ffffffffffffffffffffffffffffffffffffffff16815260200190815260200160002060000160009054906101000a900473ffffffffffffffffffffffffffffffffffffffff1673ffffffffffffffffffffffffffffffffffffffff16146107f3576040517f08c379a00000000000000000000000000000000000000000000000000000000081526004016107ea9061332c565b60405180910390fd5b5b81156109b357600360019054906101000a900468ffffffffffffffffff1668ffffffffffffffffff16600260003373ffffffffffffffffffffffffffffffffffffffff1673ffffffffffffffffffffffffffffffffffffffff16815260200190815260200160002060009054906101000a900468ffffffffffffffffff1668ffffffffffffffffff1610156108be576040517f08c379a00000000000000000000000000000000000000000000000000000000081526004016108b59061336c565b60405180910390fd5b610947600360019054906101000a900468ffffffffffffffffff16600260003373ffffffffffffffffffffffffffffffffffffffff1673ffffffffffffffffffffffffffffffffffffffff16815260200190815260200160002060009054906101000a900468ffffffffffffffffff1668ffffffffffffffffff16611bcf90919063ffffffff16565b600260003373ffffffffffffffffffffffffffffffffffffffff1673ffffffffffffffffffffffffffffffffffffffff16815260200190815260200160002060006101000a81548168ffffffffffffffffff021916908368ffffffffffffffffff160217905550610a7d565b6003600a9054906101000a900473ffffffffffffffffffffffffffffffffffffffff1673ffffffffffffffffffffffffffffffffffffffff166323b872dd3330600360019054906101000a900468ffffffffffffffffff166040518463ffffffff1660e01b8152600401610a29939291906130ea565b602060405180830381600087803b158015610a4357600080fd5b505af1158015610a57573d6000803e3d6000fd5b505050506040513d601f19601f82011682018060405250810190610a7b9190612948565b505b60405180606001604052808573ffffffffffffffffffffffffffffffffffffffff168152602001846003811115610add577f4e487b7100000000000000000000000000000000000000000000000000000000600052602160045260246000fd5b8152602001600360009054906101000a900460ff1660ff1642610b0091906133fe565b63ffffffff16815250600160003373ffffffffffffffffffffffffffffffffffffffff1673ffffffffffffffffffffffffffffffffffffffff16815260200190815260200160002060008201518160000160006101000a81548173ffffffffffffffffffffffffffffffffffffffff021916908373ffffffffffffffffffffffffffffffffffffffff16021790555060208201518160000160146101000a81548160ff02191690836003811115610be0577f4e487b7100000000000000000000000000000000000000000000000000000000600052602160045260246000fd5b021790555060408201518160000160156101000a81548163ffffffff021916908363ffffffff1602179055509050507fb60d84e37a6658effce28870b1d123cb86f86409df5888679310c0f276e1f5d23385604051610c409291906130c1565b60405180910390a150505050565b60008060009054906101000a900473ffffffffffffffffffffffffffffffffffffffff16905090565b6003600a9054906101000a900473ffffffffffffffffffffffffffffffffffffffff1681565b610ca5611b03565b73ffffffffffffffffffffffffffffffffffffffff16610cc3610c4e565b73ffffffffffffffffffffffffffffffffffffffff1614610d19576040517f08c379a0000000000000000000000000000000000000000000000000000000008152600401610d109061330c565b60405180910390fd5b601e8160ff161015610d60576040517f08c379a0000000000000000000000000000000000000000000000000000000008152600401610d57906131cc565b60405180910390fd5b80600360006101000a81548160ff021916908360ff16021790555050565b6000600260003373ffffffffffffffffffffffffffffffffffffffff1673ffffffffffffffffffffffffffffffffffffffff16815260200190815260200160002060009054906101000a900468ffffffffffffffffff1668ffffffffffffffffff161415610e21576040517f08c379a0000000000000000000000000000000000000000000000000000000008152600401610e18906132ac565b60405180910390fd5b6003600a9054906101000a900473ffffffffffffffffffffffffffffffffffffffff1673ffffffffffffffffffffffffffffffffffffffff1663a9059cbb33600260003373ffffffffffffffffffffffffffffffffffffffff1673ffffffffffffffffffffffffffffffffffffffff16815260200190815260200160002060009054906101000a900468ffffffffffffffffff166040518363ffffffff1660e01b8152600401610ed2929190613121565b602060405180830381600087803b158015610eec57600080fd5b505af1158015610f00573d6000803e3d6000fd5b505050506040513d601f19601f82011682018060405250810190610f249190612948565b507ffe0b41b72fa97bfc22d3d27394e410321c1f3abe8d93df82f9716c98a9fb0e3e604051610f529061326c565b60405180910390a1565b6060813373ffffffffffffffffffffffffffffffffffffffff168173ffffffffffffffffffffffffffffffffffffffff161415610fce576040517f08c379a0000000000000000000000000000000000000000000000000000000008152600401610fc5906131ac565b60405180910390fd5b6000600160003373ffffffffffffffffffffffffffffffffffffffff1673ffffffffffffffffffffffffffffffffffffffff16815260200190815260200160002090506000600160008673ffffffffffffffffffffffffffffffffffffffff1673ffffffffffffffffffffffffffffffffffffffff1681526020019081526020016000209050600073ffffffffffffffffffffffffffffffffffffffff168260000160009054906101000a900473ffffffffffffffffffffffffffffffffffffffff1673ffffffffffffffffffffffffffffffffffffffff161480156111045750600073ffffffffffffffffffffffffffffffffffffffff168160000160009054906101000a900473ffffffffffffffffffffffffffffffffffffffff1673ffffffffffffffffffffffffffffffffffffffff16145b1561112b576040518060600160405280602281526020016136ec60229139935050506113cc565b8473ffffffffffffffffffffffffffffffffffffffff168260000160009054906101000a900473ffffffffffffffffffffffffffffffffffffffff1673ffffffffffffffffffffffffffffffffffffffff161480156111da5750600073ffffffffffffffffffffffffffffffffffffffff168160000160009054906101000a900473ffffffffffffffffffffffffffffffffffffffff1673ffffffffffffffffffffffffffffffffffffffff16145b15611201576040518060600160405280602681526020016136c660269139935050506113cc565b600073ffffffffffffffffffffffffffffffffffffffff168260000160009054906101000a900473ffffffffffffffffffffffffffffffffffffffff1673ffffffffffffffffffffffffffffffffffffffff161480156112b057503373ffffffffffffffffffffffffffffffffffffffff168160000160009054906101000a900473ffffffffffffffffffffffffffffffffffffffff1673ffffffffffffffffffffffffffffffffffffffff16145b156112f4576040518060400160405280601e81526020017f596f7520686176656e2774206d61646520796f7572206d6f7665207965740000815250935050506113cc565b8473ffffffffffffffffffffffffffffffffffffffff168260000160009054906101000a900473ffffffffffffffffffffffffffffffffffffffff1673ffffffffffffffffffffffffffffffffffffffff161480156113a257503373ffffffffffffffffffffffffffffffffffffffff168160000160009054906101000a900473ffffffffffffffffffffffffffffffffffffffff1673ffffffffffffffffffffffffffffffffffffffff16145b156113c9576040518060600160405280603b815260200161370e603b9139935050506113cc565b50505b50919050565b803373ffffffffffffffffffffffffffffffffffffffff168173ffffffffffffffffffffffffffffffffffffffff161415611442576040517f08c379a0000000000000000000000000000000000000000000000000000000008152600401611439906131ac565b60405180910390fd5b6000600160003373ffffffffffffffffffffffffffffffffffffffff1673ffffffffffffffffffffffffffffffffffffffff16815260200190815260200160002090506000600160008573ffffffffffffffffffffffffffffffffffffffff1673ffffffffffffffffffffffffffffffffffffffff1681526020019081526020016000209050600073ffffffffffffffffffffffffffffffffffffffff16600160003373ffffffffffffffffffffffffffffffffffffffff1673ffffffffffffffffffffffffffffffffffffffff16815260200190815260200160002060000160009054906101000a900473ffffffffffffffffffffffffffffffffffffffff1673ffffffffffffffffffffffffffffffffffffffff16141561159a576040517f08c379a00000000000000000000000000000000000000000000000000000000081526004016115919061338c565b60405180910390fd5b8160000160159054906101000a900463ffffffff1663ffffffff1642116115f6576040517f08c379a00000000000000000000000000000000000000000000000000000000081526004016115ed9061320c565b60405180910390fd5b60006003811115611630577f4e487b7100000000000000000000000000000000000000000000000000000000600052602160045260246000fd5b8160000160149054906101000a900460ff16600381111561167a577f4e487b7100000000000000000000000000000000000000000000000000000000600052602160045260246000fd5b14156118d257611709600360019054906101000a900468ffffffffffffffffff16600260003373ffffffffffffffffffffffffffffffffffffffff1673ffffffffffffffffffffffffffffffffffffffff16815260200190815260200160002060009054906101000a900468ffffffffffffffffff1668ffffffffffffffffff16611c4490919063ffffffff16565b600260003373ffffffffffffffffffffffffffffffffffffffff1673ffffffffffffffffffffffffffffffffffffffff16815260200190815260200160002060006101000a81548168ffffffffffffffffff021916908368ffffffffffffffffff160217905550600160003373ffffffffffffffffffffffffffffffffffffffff1673ffffffffffffffffffffffffffffffffffffffff168152602001908152602001600020600080820160006101000a81549073ffffffffffffffffffffffffffffffffffffffff02191690556000820160146101000a81549060ff02191690556000820160156101000a81549063ffffffff02191690555050600160008573ffffffffffffffffffffffffffffffffffffffff1673ffffffffffffffffffffffffffffffffffffffff168152602001908152602001600020600080820160006101000a81549073ffffffffffffffffffffffffffffffffffffffff02191690556000820160146101000a81549060ff02191690556000820160156101000a81549063ffffffff021916905550507fc11ea087dadfdbf4e99ab4c62c33cfc957f8c968ba60bd048208022942fa6aa36040516118c59061324c565b60405180910390a1611a05565b6118dc3385611cb8565b600160003373ffffffffffffffffffffffffffffffffffffffff1673ffffffffffffffffffffffffffffffffffffffff168152602001908152602001600020600080820160006101000a81549073ffffffffffffffffffffffffffffffffffffffff02191690556000820160146101000a81549060ff02191690556000820160156101000a81549063ffffffff02191690555050600160008573ffffffffffffffffffffffffffffffffffffffff1673ffffffffffffffffffffffffffffffffffffffff168152602001908152602001600020600080820160006101000a81549073ffffffffffffffffffffffffffffffffffffffff02191690556000820160146101000a81549060ff02191690556000820160156101000a81549063ffffffff021916905550505b50505050565b611a13611b03565b73ffffffffffffffffffffffffffffffffffffffff16611a31610c4e565b73ffffffffffffffffffffffffffffffffffffffff1614611a87576040517f08c379a0000000000000000000000000000000000000000000000000000000008152600401611a7e9061330c565b60405180910390fd5b600073ffffffffffffffffffffffffffffffffffffffff168173ffffffffffffffffffffffffffffffffffffffff161415611af7576040517f08c379a0000000000000000000000000000000000000000000000000000000008152600401611aee9061316c565b60405180910390fd5b611b0081611b0b565b50565b600033905090565b60008060009054906101000a900473ffffffffffffffffffffffffffffffffffffffff169050816000806101000a81548173ffffffffffffffffffffffffffffffffffffffff021916908373ffffffffffffffffffffffffffffffffffffffff1602179055508173ffffffffffffffffffffffffffffffffffffffff168173ffffffffffffffffffffffffffffffffffffffff167f8be0079c531659141344cd1fd0a4f28419497f9722a3daafe3b4186f6b6457e060405160405180910390a35050565b60008268ffffffffffffffffff168268ffffffffffffffffff161115611c2a576040517f08c379a0000000000000000000000000000000000000000000000000000000008152600401611c21906131ec565b60405180910390fd5b60008284611c389190613507565b90508091505092915050565b6000808284611c539190613454565b90508368ffffffffffffffffff168168ffffffffffffffffff161015611cae576040517f08c379a0000000000000000000000000000000000000000000000000000000008152600401611ca59061318c565b60405180910390fd5b8091505092915050565b6000600160008473ffffffffffffffffffffffffffffffffffffffff1673ffffffffffffffffffffffffffffffffffffffff16815260200190815260200160002090506000600160008473ffffffffffffffffffffffffffffffffffffffff1673ffffffffffffffffffffffffffffffffffffffff168152602001908152602001600020905060008160000160149054906101000a900460ff166003811115611d8a577f4e487b7100000000000000000000000000000000000000000000000000000000600052602160045260246000fd5b8360000160149054906101000a900460ff166003811115611dd4577f4e487b7100000000000000000000000000000000000000000000000000000000600052602160045260246000fd5b1415611de35760009050612139565b60016003811115611e1d577f4e487b7100000000000000000000000000000000000000000000000000000000600052602160045260246000fd5b8360000160149054906101000a900460ff166003811115611e67577f4e487b7100000000000000000000000000000000000000000000000000000000600052602160045260246000fd5b148015611ef45750600380811115611ea8577f4e487b7100000000000000000000000000000000000000000000000000000000600052602160045260246000fd5b8260000160149054906101000a900460ff166003811115611ef2577f4e487b7100000000000000000000000000000000000000000000000000000000600052602160045260246000fd5b145b8061200d575060026003811115611f34577f4e487b7100000000000000000000000000000000000000000000000000000000600052602160045260246000fd5b8360000160149054906101000a900460ff166003811115611f7e577f4e487b7100000000000000000000000000000000000000000000000000000000600052602160045260246000fd5b14801561200c575060016003811115611fc0577f4e487b7100000000000000000000000000000000000000000000000000000000600052602160045260246000fd5b8260000160149054906101000a900460ff16600381111561200a577f4e487b7100000000000000000000000000000000000000000000000000000000600052602160045260246000fd5b145b5b80612125575060038081111561204c577f4e487b7100000000000000000000000000000000000000000000000000000000600052602160045260246000fd5b8360000160149054906101000a900460ff166003811115612096577f4e487b7100000000000000000000000000000000000000000000000000000000600052602160045260246000fd5b1480156121245750600260038111156120d8577f4e487b7100000000000000000000000000000000000000000000000000000000600052602160045260246000fd5b8260000160149054906101000a900460ff166003811115612122577f4e487b7100000000000000000000000000000000000000000000000000000000600052602160045260246000fd5b145b5b156121335760019050612138565b600290505b5b8160000160149054906101000a900460ff166003811115612183577f4e487b7100000000000000000000000000000000000000000000000000000000600052602160045260246000fd5b8360000160149054906101000a900460ff1660038111156121cd577f4e487b7100000000000000000000000000000000000000000000000000000000600052602160045260246000fd5b111561231b5761227a61220c6002600360019054906101000a900468ffffffffffffffffff1668ffffffffffffffffff166127b690919063ffffffff16565b600260008873ffffffffffffffffffffffffffffffffffffffff1673ffffffffffffffffffffffffffffffffffffffff16815260200190815260200160002060009054906101000a900468ffffffffffffffffff1668ffffffffffffffffff16611c4490919063ffffffff16565b600260008773ffffffffffffffffffffffffffffffffffffffff1673ffffffffffffffffffffffffffffffffffffffff16815260200190815260200160002060006101000a81548168ffffffffffffffffff021916908368ffffffffffffffffff1602179055507fc11ea087dadfdbf4e99ab4c62c33cfc957f8c968ba60bd048208022942fa6aa360405161230e906132cc565b60405180910390a16127af565b8160000160149054906101000a900460ff166003811115612365577f4e487b7100000000000000000000000000000000000000000000000000000000600052602160045260246000fd5b8360000160149054906101000a900460ff1660038111156123af577f4e487b7100000000000000000000000000000000000000000000000000000000600052602160045260246000fd5b10156124fd5761245c6123ee6002600360019054906101000a900468ffffffffffffffffff1668ffffffffffffffffff166127b690919063ffffffff16565b600260008773ffffffffffffffffffffffffffffffffffffffff1673ffffffffffffffffffffffffffffffffffffffff16815260200190815260200160002060009054906101000a900468ffffffffffffffffff1668ffffffffffffffffff16611c4490919063ffffffff16565b600260008673ffffffffffffffffffffffffffffffffffffffff1673ffffffffffffffffffffffffffffffffffffffff16815260200190815260200160002060006101000a81548168ffffffffffffffffff021916908368ffffffffffffffffff1602179055507fc11ea087dadfdbf4e99ab4c62c33cfc957f8c968ba60bd048208022942fa6aa36040516124f09061328c565b60405180910390a16127ae565b8160000160149054906101000a900460ff166003811115612547577f4e487b7100000000000000000000000000000000000000000000000000000000600052602160045260246000fd5b8360000160149054906101000a900460ff166003811115612591577f4e487b7100000000000000000000000000000000000000000000000000000000600052602160045260246000fd5b14156127ad57612620600360019054906101000a900468ffffffffffffffffff16600260008873ffffffffffffffffffffffffffffffffffffffff1673ffffffffffffffffffffffffffffffffffffffff16815260200190815260200160002060009054906101000a900468ffffffffffffffffff1668ffffffffffffffffff16611c4490919063ffffffff16565b600260008773ffffffffffffffffffffffffffffffffffffffff1673ffffffffffffffffffffffffffffffffffffffff16815260200190815260200160002060006101000a81548168ffffffffffffffffff021916908368ffffffffffffffffff160217905550612710600360019054906101000a900468ffffffffffffffffff16600260008773ffffffffffffffffffffffffffffffffffffffff1673ffffffffffffffffffffffffffffffffffffffff16815260200190815260200160002060009054906101000a900468ffffffffffffffffff1668ffffffffffffffffff16611c4490919063ffffffff16565b600260008673ffffffffffffffffffffffffffffffffffffffff1673ffffffffffffffffffffffffffffffffffffffff16815260200190815260200160002060006101000a81548168ffffffffffffffffff021916908368ffffffffffffffffff1602179055507fc11ea087dadfdbf4e99ab4c62c33cfc957f8c968ba60bd048208022942fa6aa36040516127a49061322c565b60405180910390a15b5b5b5050505050565b6000808368ffffffffffffffffff1614156127d4576000905061284c565b600082846127e291906134c4565b90508268ffffffffffffffffff1684826127fc9190613493565b68ffffffffffffffffff1614612847576040517f08c379a000000000000000000000000000000000000000000000000000000000815260040161283e906132ec565b60405180910390fd5b809150505b92915050565b60008135905061286181613659565b92915050565b60008135905061287681613670565b92915050565b60008151905061288b81613670565b92915050565b6000813590506128a081613687565b92915050565b6000813590506128b581613697565b92915050565b6000813590506128ca816136ae565b92915050565b6000602082840312156128e257600080fd5b60006128f084828501612852565b91505092915050565b60008060006060848603121561290e57600080fd5b600061291c86828701612852565b935050602061292d86828701612891565b925050604061293e86828701612867565b9150509250925092565b60006020828403121561295a57600080fd5b60006129688482850161287c565b91505092915050565b60006020828403121561298357600080fd5b6000612991848285016128a6565b91505092915050565b6000602082840312156129ac57600080fd5b60006129ba848285016128bb565b91505092915050565b6129cc8161353b565b82525050565b60006129dd826133e2565b6129e781856133ed565b93506129f78185602086016135b7565b612a0081613648565b840191505092915050565b6000612a186026836133ed565b91507f4f776e61626c653a206e6577206f776e657220697320746865207a65726f206160008301527f64647265737300000000000000000000000000000000000000000000000000006020830152604082019050919050565b6000612a7e601b836133ed565b91507f536166654d6174683a206164646974696f6e206f766572666c6f7700000000006000830152602082019050919050565b6000612abe601f836133ed565b91507f546865206f70706f6e656e742063616e6e6f7420626520796f757273656c66006000830152602082019050919050565b6000612afe6027836133ed565b91507f54686520646561646c696e652063616e6e6f74206265206c657373207468616e60008301527f20333020736563000000000000000000000000000000000000000000000000006020830152604082019050919050565b6000612b64601e836133ed565b91507f536166654d6174683a207375627472616374696f6e206f766572666c6f7700006000830152602082019050919050565b6000612ba4601d836133ed565b91507f596f752063616e27742066696e697368207468652067616d65207965740000006000830152602082019050919050565b6000612be4603d836133ed565b91507f44726177212c20746865206265747320776572652072657475726e656420746f60008301527f20746865206561726e696e6773206f6620626f746820706c61796572730000006020830152604082019050919050565b6000612c4a6053836133ed565b91507f546865206f70706f6e656e74206469646e2774206d616b6520686973206d6f7660008301527f652c2074686520616d6f756e74206f662074686520626574207761732073617660208301527f656420696e20796f7572206561726e696e6773000000000000000000000000006040830152606082019050919050565b6000612cd66021836133ed565b91507f50726f6669747320776572652073656e7420746f20796f75722061646472657360008301527f73000000000000000000000000000000000000000000000000000000000000006020830152604082019050919050565b6000612d3c601f836133ed565b91507f596f75206c6f73742c20626574746572206c75636b206e6578742074696d65006000830152602082019050919050565b6000612d7c601d836133ed565b91507f596f752068617665206e6f2066756e647320746f2077697468647261770000006000830152602082019050919050565b6000612dbc602f836133ed565b91507f596f7520776f6e2120596f75722072657761726420776173207361766564206960008301527f6e20796f7572206561726e696e677300000000000000000000000000000000006020830152604082019050919050565b6000612e226021836133ed565b91507f536166654d6174683a206d756c7469706c69636174696f6e206f766572666c6f60008301527f77000000000000000000000000000000000000000000000000000000000000006020830152604082019050919050565b6000612e886020836133ed565b91507f4f776e61626c653a2063616c6c6572206973206e6f7420746865206f776e65726000830152602082019050919050565b6000612ec8602f836133ed565b91507f546865206f70706f6e656e742068617320616e206f70656e2067616d6520776960008301527f746820736f6d656f6e6520656c736500000000000000000000000000000000006020830152604082019050919050565b6000612f2e601d836133ed565b91507f596f7520616c7265616479206861766520616e206f70656e2067616d650000006000830152602082019050919050565b6000612f6e604b836133ed565b91507f596f75206e65656420746f206465706f73697420746865206265742c20796f7560008301527f20646f206e6f74206861766520656e6f7567682077696e6e696e677320746f2060208301527f70617274696369706174650000000000000000000000000000000000000000006040830152606082019050919050565b6000612ffa604a836133ed565b91507f596f7520646f6e2774206861766520616e206f70656e2067616d65206f72207960008301527f6f7572206f70706f6e656e742068617320616c72656164792066696e6973686560208301527f64207468652067616d65000000000000000000000000000000000000000000006040830152606082019050919050565b613082816135a5565b82525050565b61309181613583565b82525050565b6130a081613598565b82525050565b60006020820190506130bb60008301846129c3565b92915050565b60006040820190506130d660008301856129c3565b6130e360208301846129c3565b9392505050565b60006060820190506130ff60008301866129c3565b61310c60208301856129c3565b6131196040830184613079565b949350505050565b600060408201905061313660008301856129c3565b6131436020830184613079565b9392505050565b6000602082019050818103600083015261316481846129d2565b905092915050565b6000602082019050818103600083015261318581612a0b565b9050919050565b600060208201905081810360008301526131a581612a71565b9050919050565b600060208201905081810360008301526131c581612ab1565b9050919050565b600060208201905081810360008301526131e581612af1565b9050919050565b6000602082019050818103600083015261320581612b57565b9050919050565b6000602082019050818103600083015261322581612b97565b9050919050565b6000602082019050818103600083015261324581612bd7565b9050919050565b6000602082019050818103600083015261326581612c3d565b9050919050565b6000602082019050818103600083015261328581612cc9565b9050919050565b600060208201905081810360008301526132a581612d2f565b9050919050565b600060208201905081810360008301526132c581612d6f565b9050919050565b600060208201905081810360008301526132e581612daf565b9050919050565b6000602082019050818103600083015261330581612e15565b9050919050565b6000602082019050818103600083015261332581612e7b565b9050919050565b6000602082019050818103600083015261334581612ebb565b9050919050565b6000602082019050818103600083015261336581612f21565b9050919050565b6000602082019050818103600083015261338581612f61565b9050919050565b600060208201905081810360008301526133a581612fed565b9050919050565b60006020820190506133c16000830184613088565b92915050565b60006020820190506133dc6000830184613097565b92915050565b600081519050919050565b600082825260208201905092915050565b600061340982613579565b915061341483613579565b9250827fffffffffffffffffffffffffffffffffffffffffffffffffffffffffffffffff03821115613449576134486135ea565b5b828201905092915050565b600061345f82613583565b915061346a83613583565b92508268ffffffffffffffffff03821115613488576134876135ea565b5b828201905092915050565b600061349e82613583565b91506134a983613583565b9250826134b9576134b8613619565b5b828204905092915050565b60006134cf82613583565b91506134da83613583565b92508168ffffffffffffffffff04831182151516156134fc576134fb6135ea565b5b828202905092915050565b600061351282613583565b915061351d83613583565b9250828210156135305761352f6135ea565b5b828203905092915050565b600061354682613559565b9050919050565b60008115159050919050565b600073ffffffffffffffffffffffffffffffffffffffff82169050919050565b6000819050919050565b600068ffffffffffffffffff82169050919050565b600060ff82169050919050565b60006135b082613583565b9050919050565b60005b838110156135d55780820151818401526020810190506135ba565b838111156135e4576000848401525b50505050565b7f4e487b7100000000000000000000000000000000000000000000000000000000600052601160045260246000fd5b7f4e487b7100000000000000000000000000000000000000000000000000000000600052601260045260246000fd5b6000601f19601f8301169050919050565b6136628161353b565b811461366d57600080fd5b50565b6136798161354d565b811461368457600080fd5b50565b6004811061369457600080fd5b50565b6136a081613583565b81146136ab57600080fd5b50565b6136b781613598565b81146136c257600080fd5b5056fe546865206f70706f6e656e7420686173206e6f7420796574206d61646520686973206d6f76655468652067616d6520646f6573206e6f74206578697374206f72206973206f766572426f746820706c61796572732068617665206d616465207468656972206d6f76652c207468652067616d6520697320726561647920746f20656e64a2646970667358221220835d27800107961c086712a39b0186c526c40ecd97a6d6886c026aadcdc1480264736f6c63430008000033",
  "immutableReferences": {},
  "source": "// SPDX-License-Identifier: MIT\r\npragma solidity 0.8.0;\r\n// Imported OZ helper contracts\r\nimport \"@openzeppelin/contracts/token/ERC20/IERC20.sol\";\r\nimport \"@openzeppelin/contracts/token/ERC20/utils/SafeERC20.sol\";\r\n// Inherited allowing for ownership of contract\r\nimport \"@openzeppelin/contracts/access/Ownable.sol\";\r\n// Safe math\r\nimport \"./SafeMath72.sol\";\r\n\r\ncontract RockPaperScissors is Ownable {\r\n    // Libraries\r\n    // Safe ERC20\r\n    using SafeERC20 for IERC20;\r\n\r\n    // Safe math\r\n    using SafeMath72 for uint72;\r\n\r\n    enum Move {\r\n        None,\r\n        Rock,\r\n        Paper,\r\n        Scissors\r\n    }\r\n\r\n    enum GameResult {\r\n        Draw,\r\n        Player1Win,\r\n        Player2Win\r\n    }\r\n\r\n    struct Game {\r\n        address opponent;\r\n        Move move;\r\n        uint32 deadline;\r\n    }\r\n\r\n    mapping(address => Game) games;\r\n    mapping(address => uint72) userTokens;\r\n\r\n    uint8 public deadline = 90;\r\n    uint72 public betFee = 1 ether;\r\n    address public tokenAddress = 0x8301F2213c0eeD49a7E28Ae4c3e91722919B8B47;\r\n\r\n    //Modifiers\r\n    modifier notSamePlayer(address opponent) {\r\n        require(opponent != msg.sender, \"The opponent cannot be yourself\");\r\n        _;\r\n    }\r\n\r\n    //Events\r\n    event GameCreated(address player1, address player2);\r\n    event GameFinished(string message);\r\n    event WithdrawalMade(string message);\r\n\r\n    //external Methods\r\n    function createGame(\r\n        address _opponent,\r\n        Move _move,\r\n        bool _useWinings\r\n    ) external payable notSamePlayer(_opponent) {\r\n        require(\r\n            games[msg.sender].opponent == address(0),\r\n            \"You already have an open game\"\r\n        );\r\n\r\n        if (games[_opponent].opponent != address(0)) {\r\n            require(\r\n                games[_opponent].opponent == msg.sender,\r\n                \"The opponent has an open game with someone else\"\r\n            );\r\n        }\r\n\r\n        if (_useWinings) {\r\n            require(\r\n                userTokens[msg.sender] >= betFee,\r\n                \"You need to deposit the bet, you do not have enough winnings to participate\"\r\n            );\r\n            userTokens[msg.sender] = userTokens[msg.sender].sub(betFee);\r\n        } else {\r\n            IERC20(tokenAddress).transferFrom(\r\n                msg.sender,\r\n                address(this),\r\n                betFee\r\n            );\r\n        }\r\n\r\n        games[msg.sender] = Game(\r\n            _opponent,\r\n            _move,\r\n            uint32(block.timestamp + deadline)\r\n        );\r\n        emit GameCreated(msg.sender, _opponent);\r\n    }\r\n\r\n    function gameStatus(address _opponent)\r\n        external\r\n        view\r\n        notSamePlayer(_opponent)\r\n        returns (string memory message)\r\n    {\r\n        Game storage player1 = games[msg.sender];\r\n        Game storage player2 = games[_opponent];\r\n\r\n        if (player1.opponent == address(0) && player2.opponent == address(0)) {\r\n            return \"The game does not exist or is over\";\r\n        } else if (\r\n            player1.opponent == _opponent && player2.opponent == address(0)\r\n        ) {\r\n            return \"The opponent has not yet made his move\";\r\n        } else if (\r\n            player1.opponent == address(0) && player2.opponent == msg.sender\r\n        ) {\r\n            return \"You haven't made your move yet\";\r\n        } else if (\r\n            player1.opponent == _opponent && player2.opponent == msg.sender\r\n        ) {\r\n            return\r\n                \"Both players have made their move, the game is ready to end\";\r\n        }\r\n    }\r\n\r\n    function finishGame(address _opponent) external notSamePlayer(_opponent) {\r\n        Game storage player1 = games[msg.sender];\r\n        Game storage player2 = games[_opponent];\r\n\r\n        require(\r\n            games[msg.sender].opponent != address(0),\r\n            \"You don't have an open game or your opponent has already finished the game\"\r\n        );\r\n\r\n        require(\r\n            block.timestamp > uint256(player1.deadline),\r\n            \"You can't finish the game yet\"\r\n        );\r\n\r\n        if (player2.move == Move.None) {\r\n            userTokens[msg.sender] = userTokens[msg.sender].add(betFee);\r\n\r\n            delete games[msg.sender];\r\n            delete games[_opponent];\r\n\r\n            emit GameFinished(\r\n                \"The opponent didn't make his move, the amount of the bet was saved in your earnings\"\r\n            );\r\n        } else {\r\n            _gameLogic(msg.sender, _opponent);\r\n\r\n            delete games[msg.sender];\r\n            delete games[_opponent];\r\n        }\r\n    }\r\n\r\n    function getBalance() external view returns (uint72 tokensBalance) {\r\n        return userTokens[msg.sender];\r\n    }\r\n\r\n    function withdrawal() external {\r\n        require(userTokens[msg.sender] != 0, \"You have no funds to withdraw\");\r\n\r\n        IERC20(tokenAddress).transfer(msg.sender, userTokens[msg.sender]);\r\n        emit WithdrawalMade(\"Profits were sent to your address\");\r\n    }\r\n\r\n    // Config Methods\r\n    function setDeadline(uint8 _deadline) external onlyOwner {\r\n        require(_deadline >= 30, \"The deadline cannot be less than 30 sec\");\r\n        deadline = _deadline;\r\n    }\r\n\r\n    function setBetFee(uint72 _betFee) external onlyOwner {\r\n        betFee = _betFee;\r\n    }\r\n\r\n    function destroySmartContract() external onlyOwner {\r\n        selfdestruct(payable(msg.sender));\r\n    }\r\n\r\n    // Private Methods\r\n    function _gameLogic(address _player1, address _player2) private {\r\n        Game storage player1 = games[_player1];\r\n        Game storage player2 = games[_player2];\r\n\r\n        GameResult result;\r\n\r\n        if (player1.move == player2.move) {\r\n            result = GameResult.Draw;\r\n        } else if (\r\n            (player1.move == Move.Rock && player2.move == Move.Scissors) ||\r\n            (player1.move == Move.Paper && player2.move == Move.Rock) ||\r\n            (player1.move == Move.Scissors && player2.move == Move.Paper)\r\n        ) {\r\n            result = GameResult.Player1Win;\r\n        } else {\r\n            result = GameResult.Player2Win;\r\n        }\r\n\r\n        if (player1.move > player2.move) {\r\n            userTokens[_player1] = userTokens[_player1].add(betFee.mul(2));\r\n            emit GameFinished(\r\n                \"You won! Your reward was saved in your earnings\"\r\n            );\r\n        } else if (player1.move < player2.move) {\r\n            userTokens[_player2] = userTokens[_player2].add(betFee.mul(2));\r\n            emit GameFinished(\"You lost, better luck next time\");\r\n        } else if (player1.move == player2.move) {\r\n            userTokens[_player1] = userTokens[_player1].add(betFee);\r\n            userTokens[_player2] = userTokens[_player2].add(betFee);\r\n\r\n            emit GameFinished(\r\n                \"Draw!, the bets were returned to the earnings of both players\"\r\n            );\r\n        }\r\n    }\r\n}\r\n",
  "sourcePath": "C:\\jaciel\\rockpaperscissors\\contracts\\contracts\\RockPaperScissors.sol",
  "compiler": {
    "name": "solc",
    "version": "0.8.0+commit.c7dfd78e.Emscripten.clang"
  },
  "schemaVersion": "3.4.3",
  "updatedAt": "2021-09-21T04:08:53.178Z",
  "devdoc": {
    "kind": "dev",
    "methods": {
      "owner()": {
        "details": "Returns the address of the current owner."
      },
      "renounceOwnership()": {
        "details": "Leaves the contract without owner. It will not be possible to call `onlyOwner` functions anymore. Can only be called by the current owner. NOTE: Renouncing ownership will leave the contract without an owner, thereby removing any functionality that is only available to the owner."
      },
      "transferOwnership(address)": {
        "details": "Transfers ownership of the contract to a new account (`newOwner`). Can only be called by the current owner."
      }
    },
    "version": 1
  },
  "userdoc": {
    "kind": "user",
    "methods": {},
    "version": 1
  }
}