{
  "contractName": "RockPaperScissors",
  "abi": [
    {
      "inputs": [
        {
          "internalType": "address",
          "name": "_tokenAddress",
          "type": "address"
        }
      ],
      "stateMutability": "nonpayable",
      "type": "constructor"
    },
    {
      "anonymous": false,
      "inputs": [
        {
          "indexed": false,
          "internalType": "address",
          "name": "player1",
          "type": "address"
        },
        {
          "indexed": false,
          "internalType": "address",
          "name": "player2",
          "type": "address"
        }
      ],
      "name": "GameCreated",
      "type": "event"
    },
    {
      "anonymous": false,
      "inputs": [
        {
          "indexed": false,
          "internalType": "string",
          "name": "message",
          "type": "string"
        },
        {
          "indexed": false,
          "internalType": "enum RockPaperScissors.Move",
          "name": "yourMove",
          "type": "uint8"
        },
        {
          "indexed": false,
          "internalType": "enum RockPaperScissors.Move",
          "name": "opponentMove",
          "type": "uint8"
        }
      ],
      "name": "GameFinished",
      "type": "event"
    },
    {
      "anonymous": false,
      "inputs": [
        {
          "indexed": true,
          "internalType": "address",
          "name": "previousOwner",
          "type": "address"
        },
        {
          "indexed": true,
          "internalType": "address",
          "name": "newOwner",
          "type": "address"
        }
      ],
      "name": "OwnershipTransferred",
      "type": "event"
    },
    {
      "anonymous": false,
      "inputs": [
        {
          "indexed": false,
          "internalType": "string",
          "name": "message",
          "type": "string"
        }
      ],
      "name": "WithdrawalMade",
      "type": "event"
    },
    {
      "inputs": [],
      "name": "betFee",
      "outputs": [
        {
          "internalType": "uint72",
          "name": "",
          "type": "uint72"
        }
      ],
      "stateMutability": "view",
      "type": "function",
      "constant": true
    },
    {
      "inputs": [],
      "name": "deadline",
      "outputs": [
        {
          "internalType": "uint8",
          "name": "",
          "type": "uint8"
        }
      ],
      "stateMutability": "view",
      "type": "function",
      "constant": true
    },
    {
      "inputs": [],
      "name": "owner",
      "outputs": [
        {
          "internalType": "address",
          "name": "",
          "type": "address"
        }
      ],
      "stateMutability": "view",
      "type": "function",
      "constant": true
    },
    {
      "inputs": [],
      "name": "renounceOwnership",
      "outputs": [],
      "stateMutability": "nonpayable",
      "type": "function"
    },
    {
      "inputs": [],
      "name": "tokenAddress",
      "outputs": [
        {
          "internalType": "address",
          "name": "",
          "type": "address"
        }
      ],
      "stateMutability": "view",
      "type": "function",
      "constant": true
    },
    {
      "inputs": [
        {
          "internalType": "address",
          "name": "newOwner",
          "type": "address"
        }
      ],
      "name": "transferOwnership",
      "outputs": [],
      "stateMutability": "nonpayable",
      "type": "function"
    },
    {
      "inputs": [
        {
          "internalType": "address",
          "name": "_opponent",
          "type": "address"
        },
        {
          "internalType": "enum RockPaperScissors.Move",
          "name": "_move",
          "type": "uint8"
        },
        {
          "internalType": "bool",
          "name": "_useWinings",
          "type": "bool"
        }
      ],
      "name": "createGame",
      "outputs": [],
      "stateMutability": "payable",
      "type": "function",
      "payable": true
    },
    {
      "inputs": [
        {
          "internalType": "address",
          "name": "_opponent",
          "type": "address"
        }
      ],
      "name": "gameStatus",
      "outputs": [
        {
          "internalType": "string",
          "name": "message",
          "type": "string"
        }
      ],
      "stateMutability": "view",
      "type": "function",
      "constant": true
    },
    {
      "inputs": [
        {
          "internalType": "address",
          "name": "_opponent",
          "type": "address"
        }
      ],
      "name": "finishGame",
      "outputs": [],
      "stateMutability": "nonpayable",
      "type": "function"
    },
    {
      "inputs": [],
      "name": "getBalance",
      "outputs": [
        {
          "internalType": "uint72",
          "name": "tokensBalance",
          "type": "uint72"
        }
      ],
      "stateMutability": "view",
      "type": "function",
      "constant": true
    },
    {
      "inputs": [],
      "name": "getOpponent",
      "outputs": [
        {
          "internalType": "address",
          "name": "opponent",
          "type": "address"
        }
      ],
      "stateMutability": "view",
      "type": "function",
      "constant": true
    },
    {
      "inputs": [],
      "name": "withdrawal",
      "outputs": [],
      "stateMutability": "nonpayable",
      "type": "function"
    },
    {
      "inputs": [
        {
          "internalType": "uint8",
          "name": "_deadline",
          "type": "uint8"
        }
      ],
      "name": "setDeadline",
      "outputs": [],
      "stateMutability": "nonpayable",
      "type": "function"
    },
    {
      "inputs": [
        {
          "internalType": "uint72",
          "name": "_betFee",
          "type": "uint72"
        }
      ],
      "name": "setBetFee",
      "outputs": [],
      "stateMutability": "nonpayable",
      "type": "function"
    },
    {
      "inputs": [],
      "name": "destroySmartContract",
      "outputs": [],
      "stateMutability": "nonpayable",
      "type": "function"
    }
  ],
  "bytecode": "0x6080604052605a600360006101000a81548160ff021916908360ff160217905550670de0b6b3a7640000600360016101000a81548168ffffffffffffffffff021916908368ffffffffffffffffff1602179055503480156200006057600080fd5b506040516200425b3803806200425b8339818101604052810190620000869190620001d1565b620000a66200009a620000ee60201b60201c565b620000f660201b60201c565b806003600a6101000a81548173ffffffffffffffffffffffffffffffffffffffff021916908373ffffffffffffffffffffffffffffffffffffffff160217905550506200024b565b600033905090565b60008060009054906101000a900473ffffffffffffffffffffffffffffffffffffffff169050816000806101000a81548173ffffffffffffffffffffffffffffffffffffffff021916908373ffffffffffffffffffffffffffffffffffffffff1602179055508173ffffffffffffffffffffffffffffffffffffffff168173ffffffffffffffffffffffffffffffffffffffff167f8be0079c531659141344cd1fd0a4f28419497f9722a3daafe3b4186f6b6457e060405160405180910390a35050565b600081519050620001cb8162000231565b92915050565b600060208284031215620001e457600080fd5b6000620001f484828501620001ba565b91505092915050565b60006200020a8262000211565b9050919050565b600073ffffffffffffffffffffffffffffffffffffffff82169050919050565b6200023c81620001fd565b81146200024857600080fd5b50565b614000806200025b6000396000f3fe6080604052600436106100e85760003560e01c80638cc018071161008a578063d4e9329211610059578063d4e932921461028b578063d59a9162146102a2578063e9652a19146102df578063f2fde38b14610308576100e8565b80638cc01807146101f05780638da5cb5b1461020c5780639d76ea5814610237578063cd0cb01614610262576100e8565b8063715018a6116100c6578063715018a61461016e578063800f7ef614610185578063841e6ce9146101ae57806385474728146101d9576100e8565b806312065fe0146100ed57806329dcb0cf146101185780633958005414610143575b600080fd5b3480156100f957600080fd5b50610102610331565b60405161010f9190613bc6565b60405180910390f35b34801561012457600080fd5b5061012d61038d565b60405161013a9190613be1565b60405180910390f35b34801561014f57600080fd5b506101586103a0565b6040516101659190613850565b60405180910390f35b34801561017a57600080fd5b5061018361040a565b005b34801561019157600080fd5b506101ac60048036038101906101a7919061310c565b610492565b005b3480156101ba57600080fd5b506101c361053c565b6040516101d09190613bc6565b60405180910390f35b3480156101e557600080fd5b506101ee610557565b005b61020a60048036038101906102059190613094565b6105ec565b005b34801561021857600080fd5b5061022161107c565b60405161022e9190613850565b60405180910390f35b34801561024357600080fd5b5061024c6110a5565b6040516102599190613850565b60405180910390f35b34801561026e57600080fd5b5061028960048036038101906102849190613135565b6110cb565b005b34801561029757600080fd5b506102a06111ac565b005b3480156102ae57600080fd5b506102c960048036038101906102c4919061306b565b6113f3565b6040516102d691906138f4565b60405180910390f35b3480156102eb57600080fd5b506103066004803603810190610301919061306b565b611ad5565b005b34801561031457600080fd5b5061032f600480360381019061032a919061306b565b612134565b005b6000600260003373ffffffffffffffffffffffffffffffffffffffff1673ffffffffffffffffffffffffffffffffffffffff16815260200190815260200160002060009054906101000a900468ffffffffffffffffff16905090565b600360009054906101000a900460ff1681565b6000600160003373ffffffffffffffffffffffffffffffffffffffff1673ffffffffffffffffffffffffffffffffffffffff16815260200190815260200160002060000160009054906101000a900473ffffffffffffffffffffffffffffffffffffffff16905090565b61041261222c565b73ffffffffffffffffffffffffffffffffffffffff1661043061107c565b73ffffffffffffffffffffffffffffffffffffffff1614610486576040517f08c379a000000000000000000000000000000000000000000000000000000000815260040161047d90613b26565b60405180910390fd5b6104906000612234565b565b61049a61222c565b73ffffffffffffffffffffffffffffffffffffffff166104b861107c565b73ffffffffffffffffffffffffffffffffffffffff161461050e576040517f08c379a000000000000000000000000000000000000000000000000000000000815260040161050590613b26565b60405180910390fd5b80600360016101000a81548168ffffffffffffffffff021916908368ffffffffffffffffff16021790555050565b600360019054906101000a900468ffffffffffffffffff1681565b61055f61222c565b73ffffffffffffffffffffffffffffffffffffffff1661057d61107c565b73ffffffffffffffffffffffffffffffffffffffff16146105d3576040517f08c379a00000000000000000000000000000000000000000000000000000000081526004016105ca90613b26565b60405180910390fd5b3373ffffffffffffffffffffffffffffffffffffffff16ff5b823373ffffffffffffffffffffffffffffffffffffffff168173ffffffffffffffffffffffffffffffffffffffff16141561065c576040517f08c379a000000000000000000000000000000000000000000000000000000000815260040161065390613956565b60405180910390fd5b600073ffffffffffffffffffffffffffffffffffffffff16600160003373ffffffffffffffffffffffffffffffffffffffff1673ffffffffffffffffffffffffffffffffffffffff16815260200190815260200160002060000160009054906101000a900473ffffffffffffffffffffffffffffffffffffffff1673ffffffffffffffffffffffffffffffffffffffff16148061085157508373ffffffffffffffffffffffffffffffffffffffff16600160003373ffffffffffffffffffffffffffffffffffffffff1673ffffffffffffffffffffffffffffffffffffffff16815260200190815260200160002060000160009054906101000a900473ffffffffffffffffffffffffffffffffffffffff1673ffffffffffffffffffffffffffffffffffffffff161480156108505750600060038111156107c6577f4e487b7100000000000000000000000000000000000000000000000000000000600052602160045260246000fd5b600160003373ffffffffffffffffffffffffffffffffffffffff1673ffffffffffffffffffffffffffffffffffffffff16815260200190815260200160002060000160149054906101000a900460ff16600381111561084e577f4e487b7100000000000000000000000000000000000000000000000000000000600052602160045260246000fd5b145b5b610890576040517f08c379a000000000000000000000000000000000000000000000000000000000815260040161088790613b66565b60405180910390fd5b600073ffffffffffffffffffffffffffffffffffffffff16600160008673ffffffffffffffffffffffffffffffffffffffff1673ffffffffffffffffffffffffffffffffffffffff16815260200190815260200160002060000160009054906101000a900473ffffffffffffffffffffffffffffffffffffffff1673ffffffffffffffffffffffffffffffffffffffff16146109f7573373ffffffffffffffffffffffffffffffffffffffff16600160008673ffffffffffffffffffffffffffffffffffffffff1673ffffffffffffffffffffffffffffffffffffffff16815260200190815260200160002060000160009054906101000a900473ffffffffffffffffffffffffffffffffffffffff1673ffffffffffffffffffffffffffffffffffffffff16146109f6576040517f08c379a00000000000000000000000000000000000000000000000000000000081526004016109ed90613b46565b60405180910390fd5b5b8115610bb657600360019054906101000a900468ffffffffffffffffff1668ffffffffffffffffff16600260003373ffffffffffffffffffffffffffffffffffffffff1673ffffffffffffffffffffffffffffffffffffffff16815260200190815260200160002060009054906101000a900468ffffffffffffffffff1668ffffffffffffffffff161015610ac1576040517f08c379a0000000000000000000000000000000000000000000000000000000008152600401610ab890613b86565b60405180910390fd5b610b4a600360019054906101000a900468ffffffffffffffffff16600260003373ffffffffffffffffffffffffffffffffffffffff1673ffffffffffffffffffffffffffffffffffffffff16815260200190815260200160002060009054906101000a900468ffffffffffffffffff1668ffffffffffffffffff166122f890919063ffffffff16565b600260003373ffffffffffffffffffffffffffffffffffffffff1673ffffffffffffffffffffffffffffffffffffffff16815260200190815260200160002060006101000a81548168ffffffffffffffffff021916908368ffffffffffffffffff160217905550610c80565b6003600a9054906101000a900473ffffffffffffffffffffffffffffffffffffffff1673ffffffffffffffffffffffffffffffffffffffff166323b872dd3330600360019054906101000a900468ffffffffffffffffff166040518463ffffffff1660e01b8152600401610c2c93929190613894565b602060405180830381600087803b158015610c4657600080fd5b505af1158015610c5a573d6000803e3d6000fd5b505050506040513d601f19601f82011682018060405250810190610c7e91906130e3565b505b60405180606001604052808573ffffffffffffffffffffffffffffffffffffffff168152602001846003811115610ce0577f4e487b7100000000000000000000000000000000000000000000000000000000600052602160045260246000fd5b8152602001600360009054906101000a900460ff1660ff1642610d039190613c18565b63ffffffff16815250600160003373ffffffffffffffffffffffffffffffffffffffff1673ffffffffffffffffffffffffffffffffffffffff16815260200190815260200160002060008201518160000160006101000a81548173ffffffffffffffffffffffffffffffffffffffff021916908373ffffffffffffffffffffffffffffffffffffffff16021790555060208201518160000160146101000a81548160ff02191690836003811115610de3577f4e487b7100000000000000000000000000000000000000000000000000000000600052602160045260246000fd5b021790555060408201518160000160156101000a81548163ffffffff021916908363ffffffff160217905550905050600073ffffffffffffffffffffffffffffffffffffffff16600160008673ffffffffffffffffffffffffffffffffffffffff1673ffffffffffffffffffffffffffffffffffffffff16815260200190815260200160002060000160009054906101000a900473ffffffffffffffffffffffffffffffffffffffff1673ffffffffffffffffffffffffffffffffffffffff16141561103d5760405180606001604052803373ffffffffffffffffffffffffffffffffffffffff16815260200160006003811115610f0a577f4e487b7100000000000000000000000000000000000000000000000000000000600052602160045260246000fd5b8152602001600360009054906101000a900460ff1660ff1642610f2d9190613c18565b63ffffffff16815250600160008673ffffffffffffffffffffffffffffffffffffffff1673ffffffffffffffffffffffffffffffffffffffff16815260200190815260200160002060008201518160000160006101000a81548173ffffffffffffffffffffffffffffffffffffffff021916908373ffffffffffffffffffffffffffffffffffffffff16021790555060208201518160000160146101000a81548160ff0219169083600381111561100d577f4e487b7100000000000000000000000000000000000000000000000000000000600052602160045260246000fd5b021790555060408201518160000160156101000a81548163ffffffff021916908363ffffffff1602179055509050505b7fb60d84e37a6658effce28870b1d123cb86f86409df5888679310c0f276e1f5d2338560405161106e92919061386b565b60405180910390a150505050565b60008060009054906101000a900473ffffffffffffffffffffffffffffffffffffffff16905090565b6003600a9054906101000a900473ffffffffffffffffffffffffffffffffffffffff1681565b6110d361222c565b73ffffffffffffffffffffffffffffffffffffffff166110f161107c565b73ffffffffffffffffffffffffffffffffffffffff1614611147576040517f08c379a000000000000000000000000000000000000000000000000000000000815260040161113e90613b26565b60405180910390fd5b60058160ff16101561118e576040517f08c379a000000000000000000000000000000000000000000000000000000000815260040161118590613996565b60405180910390fd5b80600360006101000a81548160ff021916908360ff16021790555050565b6000600260003373ffffffffffffffffffffffffffffffffffffffff1673ffffffffffffffffffffffffffffffffffffffff16815260200190815260200160002060009054906101000a900468ffffffffffffffffff1668ffffffffffffffffff16141561124f576040517f08c379a000000000000000000000000000000000000000000000000000000000815260040161124690613aaa565b60405180910390fd5b6003600a9054906101000a900473ffffffffffffffffffffffffffffffffffffffff1673ffffffffffffffffffffffffffffffffffffffff1663a9059cbb33600260003373ffffffffffffffffffffffffffffffffffffffff1673ffffffffffffffffffffffffffffffffffffffff16815260200190815260200160002060009054906101000a900468ffffffffffffffffff166040518363ffffffff1660e01b81526004016113009291906138cb565b602060405180830381600087803b15801561131a57600080fd5b505af115801561132e573d6000803e3d6000fd5b505050506040513d601f19601f8201168201806040525081019061135291906130e3565b506000600260003373ffffffffffffffffffffffffffffffffffffffff1673ffffffffffffffffffffffffffffffffffffffff16815260200190815260200160002060006101000a81548168ffffffffffffffffff021916908368ffffffffffffffffff1602179055507ffe0b41b72fa97bfc22d3d27394e410321c1f3abe8d93df82f9716c98a9fb0e3e6040516113e990613a4e565b60405180910390a1565b6060813373ffffffffffffffffffffffffffffffffffffffff168173ffffffffffffffffffffffffffffffffffffffff161415611465576040517f08c379a000000000000000000000000000000000000000000000000000000000815260040161145c90613956565b60405180910390fd5b6000600160003373ffffffffffffffffffffffffffffffffffffffff1673ffffffffffffffffffffffffffffffffffffffff16815260200190815260200160002090506000600160008673ffffffffffffffffffffffffffffffffffffffff1673ffffffffffffffffffffffffffffffffffffffff1681526020019081526020016000209050600073ffffffffffffffffffffffffffffffffffffffff168260000160009054906101000a900473ffffffffffffffffffffffffffffffffffffffff1673ffffffffffffffffffffffffffffffffffffffff1614801561159b5750600073ffffffffffffffffffffffffffffffffffffffff168160000160009054906101000a900473ffffffffffffffffffffffffffffffffffffffff1673ffffffffffffffffffffffffffffffffffffffff16145b156115c257604051806060016040528060228152602001613f6e6022913993505050611acf565b8473ffffffffffffffffffffffffffffffffffffffff168260000160009054906101000a900473ffffffffffffffffffffffffffffffffffffffff1673ffffffffffffffffffffffffffffffffffffffff161480156116fd57503373ffffffffffffffffffffffffffffffffffffffff168160000160009054906101000a900473ffffffffffffffffffffffffffffffffffffffff1673ffffffffffffffffffffffffffffffffffffffff161480156116fc5750600060038111156116b0577f4e487b7100000000000000000000000000000000000000000000000000000000600052602160045260246000fd5b8160000160149054906101000a900460ff1660038111156116fa577f4e487b7100000000000000000000000000000000000000000000000000000000600052602160045260246000fd5b145b5b1561172457604051806060016040528060268152602001613f486026913993505050611acf565b8473ffffffffffffffffffffffffffffffffffffffff168260000160009054906101000a900473ffffffffffffffffffffffffffffffffffffffff1673ffffffffffffffffffffffffffffffffffffffff161480156118045750600060038111156117b8577f4e487b7100000000000000000000000000000000000000000000000000000000600052602160045260246000fd5b8260000160149054906101000a900460ff166003811115611802577f4e487b7100000000000000000000000000000000000000000000000000000000600052602160045260246000fd5b145b801561185f57503373ffffffffffffffffffffffffffffffffffffffff168160000160009054906101000a900473ffffffffffffffffffffffffffffffffffffffff1673ffffffffffffffffffffffffffffffffffffffff16145b156118a3576040518060400160405280601e81526020017f596f7520686176656e2774206d61646520796f7572206d6f766520796574000081525093505050611acf565b8473ffffffffffffffffffffffffffffffffffffffff168260000160009054906101000a900473ffffffffffffffffffffffffffffffffffffffff1673ffffffffffffffffffffffffffffffffffffffff16148015611984575060006003811115611937577f4e487b7100000000000000000000000000000000000000000000000000000000600052602160045260246000fd5b8260000160149054906101000a900460ff166003811115611981577f4e487b7100000000000000000000000000000000000000000000000000000000600052602160045260246000fd5b14155b8015611a6d57503373ffffffffffffffffffffffffffffffffffffffff168160000160009054906101000a900473ffffffffffffffffffffffffffffffffffffffff1673ffffffffffffffffffffffffffffffffffffffff16148015611a6c575060006003811115611a1f577f4e487b7100000000000000000000000000000000000000000000000000000000600052602160045260246000fd5b8160000160149054906101000a900460ff166003811115611a69577f4e487b7100000000000000000000000000000000000000000000000000000000600052602160045260246000fd5b14155b5b15611a94576040518060600160405280603b8152602001613f90603b913993505050611acf565b6040518060400160405280600981526020017f466f7262696464656e0000000000000000000000000000000000000000000000815250935050505b50919050565b803373ffffffffffffffffffffffffffffffffffffffff168173ffffffffffffffffffffffffffffffffffffffff161415611b45576040517f08c379a0000000000000000000000000000000000000000000000000000000008152600401611b3c90613956565b60405180910390fd5b6000600160003373ffffffffffffffffffffffffffffffffffffffff1673ffffffffffffffffffffffffffffffffffffffff16815260200190815260200160002090506000600160008573ffffffffffffffffffffffffffffffffffffffff1673ffffffffffffffffffffffffffffffffffffffff1681526020019081526020016000209050600073ffffffffffffffffffffffffffffffffffffffff16600160003373ffffffffffffffffffffffffffffffffffffffff1673ffffffffffffffffffffffffffffffffffffffff16815260200190815260200160002060000160009054906101000a900473ffffffffffffffffffffffffffffffffffffffff1673ffffffffffffffffffffffffffffffffffffffff161415611c9d576040517f08c379a0000000000000000000000000000000000000000000000000000000008152600401611c9490613ba6565b60405180910390fd5b8160000160159054906101000a900463ffffffff1663ffffffff164211611cf9576040517f08c379a0000000000000000000000000000000000000000000000000000000008152600401611cf0906139b6565b60405180910390fd5b60006003811115611d33577f4e487b7100000000000000000000000000000000000000000000000000000000600052602160045260246000fd5b8160000160149054906101000a900460ff166003811115611d7d577f4e487b7100000000000000000000000000000000000000000000000000000000600052602160045260246000fd5b1415611ffb57611e0c600360019054906101000a900468ffffffffffffffffff16600260003373ffffffffffffffffffffffffffffffffffffffff1673ffffffffffffffffffffffffffffffffffffffff16815260200190815260200160002060009054906101000a900468ffffffffffffffffff1668ffffffffffffffffff1661236d90919063ffffffff16565b600260003373ffffffffffffffffffffffffffffffffffffffff1673ffffffffffffffffffffffffffffffffffffffff16815260200190815260200160002060006101000a81548168ffffffffffffffffff021916908368ffffffffffffffffff160217905550600160003373ffffffffffffffffffffffffffffffffffffffff1673ffffffffffffffffffffffffffffffffffffffff168152602001908152602001600020600080820160006101000a81549073ffffffffffffffffffffffffffffffffffffffff02191690556000820160146101000a81549060ff02191690556000820160156101000a81549063ffffffff02191690555050600160008573ffffffffffffffffffffffffffffffffffffffff1673ffffffffffffffffffffffffffffffffffffffff168152602001908152602001600020600080820160006101000a81549073ffffffffffffffffffffffffffffffffffffffff02191690556000820160146101000a81549060ff02191690556000820160156101000a81549063ffffffff021916905550507ffb68ad8e3bca5bb2dd21bfb1ef2c2ad668b43107c43843fcfde150cb267a43dc8260000160149054906101000a900460ff168260000160149054906101000a900460ff16604051611fee929190613a12565b60405180910390a161212e565b61200533856123e1565b600160003373ffffffffffffffffffffffffffffffffffffffff1673ffffffffffffffffffffffffffffffffffffffff168152602001908152602001600020600080820160006101000a81549073ffffffffffffffffffffffffffffffffffffffff02191690556000820160146101000a81549060ff02191690556000820160156101000a81549063ffffffff02191690555050600160008573ffffffffffffffffffffffffffffffffffffffff1673ffffffffffffffffffffffffffffffffffffffff168152602001908152602001600020600080820160006101000a81549073ffffffffffffffffffffffffffffffffffffffff02191690556000820160146101000a81549060ff02191690556000820160156101000a81549063ffffffff021916905550505b50505050565b61213c61222c565b73ffffffffffffffffffffffffffffffffffffffff1661215a61107c565b73ffffffffffffffffffffffffffffffffffffffff16146121b0576040517f08c379a00000000000000000000000000000000000000000000000000000000081526004016121a790613b26565b60405180910390fd5b600073ffffffffffffffffffffffffffffffffffffffff168173ffffffffffffffffffffffffffffffffffffffff161415612220576040517f08c379a000000000000000000000000000000000000000000000000000000000815260040161221790613916565b60405180910390fd5b61222981612234565b50565b600033905090565b60008060009054906101000a900473ffffffffffffffffffffffffffffffffffffffff169050816000806101000a81548173ffffffffffffffffffffffffffffffffffffffff021916908373ffffffffffffffffffffffffffffffffffffffff1602179055508173ffffffffffffffffffffffffffffffffffffffff168173ffffffffffffffffffffffffffffffffffffffff167f8be0079c531659141344cd1fd0a4f28419497f9722a3daafe3b4186f6b6457e060405160405180910390a35050565b60008268ffffffffffffffffff168268ffffffffffffffffff161115612353576040517f08c379a000000000000000000000000000000000000000000000000000000000815260040161234a90613976565b60405180910390fd5b600082846123619190613d21565b90508091505092915050565b600080828461237c9190613c6e565b90508368ffffffffffffffffff168168ffffffffffffffffff1610156123d7576040517f08c379a00000000000000000000000000000000000000000000000000000000081526004016123ce90613936565b60405180910390fd5b8091505092915050565b6000600160008473ffffffffffffffffffffffffffffffffffffffff1673ffffffffffffffffffffffffffffffffffffffff16815260200190815260200160002090506000600160008473ffffffffffffffffffffffffffffffffffffffff1673ffffffffffffffffffffffffffffffffffffffff168152602001908152602001600020905060008160000160149054906101000a900460ff1660038111156124b3577f4e487b7100000000000000000000000000000000000000000000000000000000600052602160045260246000fd5b8360000160149054906101000a900460ff1660038111156124fd577f4e487b7100000000000000000000000000000000000000000000000000000000600052602160045260246000fd5b141561250c5760009050612862565b60016003811115612546577f4e487b7100000000000000000000000000000000000000000000000000000000600052602160045260246000fd5b8360000160149054906101000a900460ff166003811115612590577f4e487b7100000000000000000000000000000000000000000000000000000000600052602160045260246000fd5b14801561261d57506003808111156125d1577f4e487b7100000000000000000000000000000000000000000000000000000000600052602160045260246000fd5b8260000160149054906101000a900460ff16600381111561261b577f4e487b7100000000000000000000000000000000000000000000000000000000600052602160045260246000fd5b145b8061273657506002600381111561265d577f4e487b7100000000000000000000000000000000000000000000000000000000600052602160045260246000fd5b8360000160149054906101000a900460ff1660038111156126a7577f4e487b7100000000000000000000000000000000000000000000000000000000600052602160045260246000fd5b1480156127355750600160038111156126e9577f4e487b7100000000000000000000000000000000000000000000000000000000600052602160045260246000fd5b8260000160149054906101000a900460ff166003811115612733577f4e487b7100000000000000000000000000000000000000000000000000000000600052602160045260246000fd5b145b5b8061284e5750600380811115612775577f4e487b7100000000000000000000000000000000000000000000000000000000600052602160045260246000fd5b8360000160149054906101000a900460ff1660038111156127bf577f4e487b7100000000000000000000000000000000000000000000000000000000600052602160045260246000fd5b14801561284d575060026003811115612801577f4e487b7100000000000000000000000000000000000000000000000000000000600052602160045260246000fd5b8260000160149054906101000a900460ff16600381111561284b577f4e487b7100000000000000000000000000000000000000000000000000000000600052602160045260246000fd5b145b5b1561285c5760019050612861565b600290505b5b8160000160149054906101000a900460ff1660038111156128ac577f4e487b7100000000000000000000000000000000000000000000000000000000600052602160045260246000fd5b8360000160149054906101000a900460ff1660038111156128f6577f4e487b7100000000000000000000000000000000000000000000000000000000600052602160045260246000fd5b1115612a6a576129a36129356002600360019054906101000a900468ffffffffffffffffff1668ffffffffffffffffff16612f5190919063ffffffff16565b600260008873ffffffffffffffffffffffffffffffffffffffff1673ffffffffffffffffffffffffffffffffffffffff16815260200190815260200160002060009054906101000a900468ffffffffffffffffff1668ffffffffffffffffff1661236d90919063ffffffff16565b600260008773ffffffffffffffffffffffffffffffffffffffff1673ffffffffffffffffffffffffffffffffffffffff16815260200190815260200160002060006101000a81548168ffffffffffffffffff021916908368ffffffffffffffffff1602179055507ffb68ad8e3bca5bb2dd21bfb1ef2c2ad668b43107c43843fcfde150cb267a43dc8360000160149054906101000a900460ff168360000160149054906101000a900460ff16604051612a5d929190613aca565b60405180910390a1612f4a565b8160000160149054906101000a900460ff166003811115612ab4577f4e487b7100000000000000000000000000000000000000000000000000000000600052602160045260246000fd5b8360000160149054906101000a900460ff166003811115612afe577f4e487b7100000000000000000000000000000000000000000000000000000000600052602160045260246000fd5b1015612c7257612bab612b3d6002600360019054906101000a900468ffffffffffffffffff1668ffffffffffffffffff16612f5190919063ffffffff16565b600260008773ffffffffffffffffffffffffffffffffffffffff1673ffffffffffffffffffffffffffffffffffffffff16815260200190815260200160002060009054906101000a900468ffffffffffffffffff1668ffffffffffffffffff1661236d90919063ffffffff16565b600260008673ffffffffffffffffffffffffffffffffffffffff1673ffffffffffffffffffffffffffffffffffffffff16815260200190815260200160002060006101000a81548168ffffffffffffffffff021916908368ffffffffffffffffff1602179055507ffb68ad8e3bca5bb2dd21bfb1ef2c2ad668b43107c43843fcfde150cb267a43dc8360000160149054906101000a900460ff168360000160149054906101000a900460ff16604051612c65929190613a6e565b60405180910390a1612f49565b8160000160149054906101000a900460ff166003811115612cbc577f4e487b7100000000000000000000000000000000000000000000000000000000600052602160045260246000fd5b8360000160149054906101000a900460ff166003811115612d06577f4e487b7100000000000000000000000000000000000000000000000000000000600052602160045260246000fd5b1415612f4857612d95600360019054906101000a900468ffffffffffffffffff16600260008873ffffffffffffffffffffffffffffffffffffffff1673ffffffffffffffffffffffffffffffffffffffff16815260200190815260200160002060009054906101000a900468ffffffffffffffffff1668ffffffffffffffffff1661236d90919063ffffffff16565b600260008773ffffffffffffffffffffffffffffffffffffffff1673ffffffffffffffffffffffffffffffffffffffff16815260200190815260200160002060006101000a81548168ffffffffffffffffff021916908368ffffffffffffffffff160217905550612e85600360019054906101000a900468ffffffffffffffffff16600260008773ffffffffffffffffffffffffffffffffffffffff1673ffffffffffffffffffffffffffffffffffffffff16815260200190815260200160002060009054906101000a900468ffffffffffffffffff1668ffffffffffffffffff1661236d90919063ffffffff16565b600260008673ffffffffffffffffffffffffffffffffffffffff1673ffffffffffffffffffffffffffffffffffffffff16815260200190815260200160002060006101000a81548168ffffffffffffffffff021916908368ffffffffffffffffff1602179055507ffb68ad8e3bca5bb2dd21bfb1ef2c2ad668b43107c43843fcfde150cb267a43dc8360000160149054906101000a900460ff168360000160149054906101000a900460ff16604051612f3f9291906139d6565b60405180910390a15b5b5b5050505050565b6000808368ffffffffffffffffff161415612f6f5760009050612fe7565b60008284612f7d9190613cde565b90508268ffffffffffffffffff168482612f979190613cad565b68ffffffffffffffffff1614612fe2576040517f08c379a0000000000000000000000000000000000000000000000000000000008152600401612fd990613b06565b60405180910390fd5b809150505b92915050565b600081359050612ffc81613edb565b92915050565b60008135905061301181613ef2565b92915050565b60008151905061302681613ef2565b92915050565b60008135905061303b81613f09565b92915050565b60008135905061305081613f19565b92915050565b60008135905061306581613f30565b92915050565b60006020828403121561307d57600080fd5b600061308b84828501612fed565b91505092915050565b6000806000606084860312156130a957600080fd5b60006130b786828701612fed565b93505060206130c88682870161302c565b92505060406130d986828701613002565b9150509250925092565b6000602082840312156130f557600080fd5b600061310384828501613017565b91505092915050565b60006020828403121561311e57600080fd5b600061312c84828501613041565b91505092915050565b60006020828403121561314757600080fd5b600061315584828501613056565b91505092915050565b61316781613d55565b82525050565b61317681613dd2565b82525050565b600061318782613bfc565b6131918185613c07565b93506131a1818560208601613df6565b6131aa81613eb6565b840191505092915050565b60006131c2602683613c07565b91507f4f776e61626c653a206e6577206f776e657220697320746865207a65726f206160008301527f64647265737300000000000000000000000000000000000000000000000000006020830152604082019050919050565b6000613228601b83613c07565b91507f536166654d6174683a206164646974696f6e206f766572666c6f7700000000006000830152602082019050919050565b6000613268601f83613c07565b91507f546865206f70706f6e656e742063616e6e6f7420626520796f757273656c66006000830152602082019050919050565b60006132a8601e83613c07565b91507f536166654d6174683a207375627472616374696f6e206f766572666c6f7700006000830152602082019050919050565b60006132e8602683613c07565b91507f54686520646561646c696e652063616e6e6f74206265206c657373207468616e60008301527f20352073656300000000000000000000000000000000000000000000000000006020830152604082019050919050565b600061334e601d83613c07565b91507f596f752063616e27742066696e697368207468652067616d65207965740000006000830152602082019050919050565b600061338e603d83613c07565b91507f44726177212c20746865206265747320776572652072657475726e656420746f60008301527f20746865206561726e696e6773206f6620626f746820706c61796572730000006020830152604082019050919050565b60006133f4605383613c07565b91507f546865206f70706f6e656e74206469646e2774206d616b6520686973206d6f7660008301527f652c2074686520616d6f756e74206f662074686520626574207761732073617660208301527f656420696e20796f7572206561726e696e6773000000000000000000000000006040830152606082019050919050565b6000613480602183613c07565b91507f50726f6669747320776572652073656e7420746f20796f75722061646472657360008301527f73000000000000000000000000000000000000000000000000000000000000006020830152604082019050919050565b60006134e6601f83613c07565b91507f596f75206c6f73742c20626574746572206c75636b206e6578742074696d65006000830152602082019050919050565b6000613526601d83613c07565b91507f596f752068617665206e6f2066756e647320746f2077697468647261770000006000830152602082019050919050565b6000613566602f83613c07565b91507f596f7520776f6e2120596f75722072657761726420776173207361766564206960008301527f6e20796f7572206561726e696e677300000000000000000000000000000000006020830152604082019050919050565b60006135cc602183613c07565b91507f536166654d6174683a206d756c7469706c69636174696f6e206f766572666c6f60008301527f77000000000000000000000000000000000000000000000000000000000000006020830152604082019050919050565b6000613632602083613c07565b91507f4f776e61626c653a2063616c6c6572206973206e6f7420746865206f776e65726000830152602082019050919050565b6000613672602f83613c07565b91507f546865206f70706f6e656e742068617320616e206f70656e2067616d6520776960008301527f746820736f6d656f6e6520656c736500000000000000000000000000000000006020830152604082019050919050565b60006136d8601d83613c07565b91507f596f7520616c7265616479206861766520616e206f70656e2067616d650000006000830152602082019050919050565b6000613718604b83613c07565b91507f596f75206e65656420746f206465706f73697420746865206265742c20796f7560008301527f20646f206e6f74206861766520656e6f7567682077696e6e696e677320746f2060208301527f70617274696369706174650000000000000000000000000000000000000000006040830152606082019050919050565b60006137a4604a83613c07565b91507f596f7520646f6e2774206861766520616e206f70656e2067616d65206f72207960008301527f6f7572206f70706f6e656e742068617320616c72656164792066696e6973686560208301527f64207468652067616d65000000000000000000000000000000000000000000006040830152606082019050919050565b61382c81613de4565b82525050565b61383b81613db0565b82525050565b61384a81613dc5565b82525050565b6000602082019050613865600083018461315e565b92915050565b6000604082019050613880600083018561315e565b61388d602083018461315e565b9392505050565b60006060820190506138a9600083018661315e565b6138b6602083018561315e565b6138c36040830184613823565b949350505050565b60006040820190506138e0600083018561315e565b6138ed6020830184613823565b9392505050565b6000602082019050818103600083015261390e818461317c565b905092915050565b6000602082019050818103600083015261392f816131b5565b9050919050565b6000602082019050818103600083015261394f8161321b565b9050919050565b6000602082019050818103600083015261396f8161325b565b9050919050565b6000602082019050818103600083015261398f8161329b565b9050919050565b600060208201905081810360008301526139af816132db565b9050919050565b600060208201905081810360008301526139cf81613341565b9050919050565b600060608201905081810360008301526139ef81613381565b90506139fe602083018561316d565b613a0b604083018461316d565b9392505050565b60006060820190508181036000830152613a2b816133e7565b9050613a3a602083018561316d565b613a47604083018461316d565b9392505050565b60006020820190508181036000830152613a6781613473565b9050919050565b60006060820190508181036000830152613a87816134d9565b9050613a96602083018561316d565b613aa3604083018461316d565b9392505050565b60006020820190508181036000830152613ac381613519565b9050919050565b60006060820190508181036000830152613ae381613559565b9050613af2602083018561316d565b613aff604083018461316d565b9392505050565b60006020820190508181036000830152613b1f816135bf565b9050919050565b60006020820190508181036000830152613b3f81613625565b9050919050565b60006020820190508181036000830152613b5f81613665565b9050919050565b60006020820190508181036000830152613b7f816136cb565b9050919050565b60006020820190508181036000830152613b9f8161370b565b9050919050565b60006020820190508181036000830152613bbf81613797565b9050919050565b6000602082019050613bdb6000830184613832565b92915050565b6000602082019050613bf66000830184613841565b92915050565b600081519050919050565b600082825260208201905092915050565b6000613c2382613da6565b9150613c2e83613da6565b9250827fffffffffffffffffffffffffffffffffffffffffffffffffffffffffffffffff03821115613c6357613c62613e29565b5b828201905092915050565b6000613c7982613db0565b9150613c8483613db0565b92508268ffffffffffffffffff03821115613ca257613ca1613e29565b5b828201905092915050565b6000613cb882613db0565b9150613cc383613db0565b925082613cd357613cd2613e58565b5b828204905092915050565b6000613ce982613db0565b9150613cf483613db0565b92508168ffffffffffffffffff0483118215151615613d1657613d15613e29565b5b828202905092915050565b6000613d2c82613db0565b9150613d3783613db0565b925082821015613d4a57613d49613e29565b5b828203905092915050565b6000613d6082613d86565b9050919050565b60008115159050919050565b6000819050613d8182613ec7565b919050565b600073ffffffffffffffffffffffffffffffffffffffff82169050919050565b6000819050919050565b600068ffffffffffffffffff82169050919050565b600060ff82169050919050565b6000613ddd82613d73565b9050919050565b6000613def82613db0565b9050919050565b60005b83811015613e14578082015181840152602081019050613df9565b83811115613e23576000848401525b50505050565b7f4e487b7100000000000000000000000000000000000000000000000000000000600052601160045260246000fd5b7f4e487b7100000000000000000000000000000000000000000000000000000000600052601260045260246000fd5b7f4e487b7100000000000000000000000000000000000000000000000000000000600052602160045260246000fd5b6000601f19601f8301169050919050565b60048110613ed857613ed7613e87565b5b50565b613ee481613d55565b8114613eef57600080fd5b50565b613efb81613d67565b8114613f0657600080fd5b50565b60048110613f1657600080fd5b50565b613f2281613db0565b8114613f2d57600080fd5b50565b613f3981613dc5565b8114613f4457600080fd5b5056fe546865206f70706f6e656e7420686173206e6f7420796574206d61646520686973206d6f76655468652067616d6520646f6573206e6f74206578697374206f72206973206f766572426f746820706c61796572732068617665206d616465207468656972206d6f76652c207468652067616d6520697320726561647920746f20656e64a2646970667358221220959bcd58e1c8d3c36b36d24eb39b8aa9fa075ff92b6dde49173f8ce60e12037264736f6c63430008000033",
  "immutableReferences": {},
  "source": "// SPDX-License-Identifier: MIT\r\npragma solidity 0.8.0;\r\n// Imported OZ helper contracts\r\nimport \"@openzeppelin/contracts/token/ERC20/IERC20.sol\";\r\nimport \"@openzeppelin/contracts/token/ERC20/utils/SafeERC20.sol\";\r\n// Inherited allowing for ownership of contract\r\nimport \"@openzeppelin/contracts/access/Ownable.sol\";\r\n// Safe math\r\nimport \"./SafeMath72.sol\";\r\n\r\ncontract RockPaperScissors is Ownable {\r\n    // Libraries\r\n    // Safe ERC20\r\n    using SafeERC20 for IERC20;\r\n\r\n    // Safe math\r\n    using SafeMath72 for uint72;\r\n\r\n    enum Move {\r\n        None,\r\n        Rock,\r\n        Paper,\r\n        Scissors\r\n    }\r\n\r\n    enum GameResult {\r\n        Draw,\r\n        Player1Win,\r\n        Player2Win\r\n    }\r\n\r\n    struct Game {\r\n        address opponent;\r\n        Move move;\r\n        uint32 deadline;\r\n    }\r\n\r\n    mapping(address => Game) games;\r\n    mapping(address => uint72) userTokens;\r\n\r\n    uint8 public deadline = 90;\r\n    uint72 public betFee = 1 ether;\r\n    address public tokenAddress;\r\n\r\n    //Modifiers\r\n    modifier notSamePlayer(address opponent) {\r\n        require(opponent != msg.sender, \"The opponent cannot be yourself\");\r\n        _;\r\n    }\r\n\r\n    //Events\r\n    event GameCreated(address player1, address player2);\r\n    event GameFinished(string message, Move yourMove, Move opponentMove);\r\n    event WithdrawalMade(string message);\r\n\r\n    constructor(address _tokenAddress) {\r\n        tokenAddress = _tokenAddress;\r\n    }\r\n\r\n    //external Methods\r\n    function createGame(\r\n        address _opponent,\r\n        Move _move,\r\n        bool _useWinings\r\n    ) external payable notSamePlayer(_opponent) {\r\n        require(\r\n            games[msg.sender].opponent == address(0) ||\r\n                (games[msg.sender].opponent == _opponent &&\r\n                    games[msg.sender].move == Move.None),\r\n            \"You already have an open game\"\r\n        );\r\n\r\n        if (games[_opponent].opponent != address(0)) {\r\n            require(\r\n                games[_opponent].opponent == msg.sender,\r\n                \"The opponent has an open game with someone else\"\r\n            );\r\n        }\r\n\r\n        if (_useWinings) {\r\n            require(\r\n                userTokens[msg.sender] >= betFee,\r\n                \"You need to deposit the bet, you do not have enough winnings to participate\"\r\n            );\r\n            userTokens[msg.sender] = userTokens[msg.sender].sub(betFee);\r\n        } else {\r\n            IERC20(tokenAddress).transferFrom(\r\n                msg.sender,\r\n                address(this),\r\n                betFee\r\n            );\r\n        }\r\n\r\n        games[msg.sender] = Game(\r\n            _opponent,\r\n            _move,\r\n            uint32(block.timestamp + deadline)\r\n        );\r\n\r\n        if (games[_opponent].opponent == address(0)) {\r\n            games[_opponent] = Game(\r\n                msg.sender,\r\n                Move.None,\r\n                uint32(block.timestamp + deadline)\r\n            );\r\n        }\r\n\r\n        emit GameCreated(msg.sender, _opponent);\r\n    }\r\n\r\n    function gameStatus(address _opponent)\r\n        external\r\n        view\r\n        notSamePlayer(_opponent)\r\n        returns (string memory message)\r\n    {\r\n        Game storage player1 = games[msg.sender];\r\n        Game storage player2 = games[_opponent];\r\n\r\n        if (player1.opponent == address(0) && player2.opponent == address(0)) {\r\n            return \"The game does not exist or is over\";\r\n        } else if (\r\n            player1.opponent == _opponent &&\r\n            (player2.opponent == msg.sender && player2.move == Move.None)\r\n        ) {\r\n            return \"The opponent has not yet made his move\";\r\n        } else if (\r\n            (player1.opponent == _opponent && player1.move == Move.None) &&\r\n            player2.opponent == msg.sender\r\n        ) {\r\n            return \"You haven't made your move yet\";\r\n        } else if (\r\n            (player1.opponent == _opponent && player1.move != Move.None) &&\r\n            (player2.opponent == msg.sender && player2.move != Move.None)\r\n        ) {\r\n            return\r\n                \"Both players have made their move, the game is ready to end\";\r\n        } else {\r\n            return \"Forbidden\";\r\n        }\r\n    }\r\n\r\n    function finishGame(address _opponent) external notSamePlayer(_opponent) {\r\n        Game storage player1 = games[msg.sender];\r\n        Game storage player2 = games[_opponent];\r\n\r\n        require(\r\n            games[msg.sender].opponent != address(0),\r\n            \"You don't have an open game or your opponent has already finished the game\"\r\n        );\r\n\r\n        require(\r\n            block.timestamp > uint256(player1.deadline),\r\n            \"You can't finish the game yet\"\r\n        );\r\n\r\n        if (player2.move == Move.None) {\r\n            userTokens[msg.sender] = userTokens[msg.sender].add(betFee);\r\n\r\n            delete games[msg.sender];\r\n            delete games[_opponent];\r\n\r\n            emit GameFinished(\r\n                \"The opponent didn't make his move, the amount of the bet was saved in your earnings\",\r\n                player1.move,\r\n                player2.move\r\n            );\r\n        } else {\r\n            _gameLogic(msg.sender, _opponent);\r\n\r\n            delete games[msg.sender];\r\n            delete games[_opponent];\r\n        }\r\n    }\r\n\r\n    function getBalance() external view returns (uint72 tokensBalance) {\r\n        return userTokens[msg.sender];\r\n    }\r\n\r\n    function getOpponent() external view returns (address opponent) {\r\n        return games[msg.sender].opponent;\r\n    }\r\n\r\n    function withdrawal() external {\r\n        require(userTokens[msg.sender] != 0, \"You have no funds to withdraw\");\r\n\r\n        IERC20(tokenAddress).transfer(msg.sender, userTokens[msg.sender]);\r\n        userTokens[msg.sender] = 0;\r\n\r\n        emit WithdrawalMade(\"Profits were sent to your address\");\r\n    }\r\n\r\n    // Config Methods\r\n    function setDeadline(uint8 _deadline) external onlyOwner {\r\n        require(_deadline >= 5, \"The deadline cannot be less than 5 sec\");\r\n        deadline = _deadline;\r\n    }\r\n\r\n    function setBetFee(uint72 _betFee) external onlyOwner {\r\n        betFee = _betFee;\r\n    }\r\n\r\n    function destroySmartContract() external onlyOwner {\r\n        selfdestruct(payable(msg.sender));\r\n    }\r\n\r\n    // Private Methods\r\n    function _gameLogic(address _player1, address _player2) private {\r\n        Game storage player1 = games[_player1];\r\n        Game storage player2 = games[_player2];\r\n\r\n        GameResult result;\r\n\r\n        if (player1.move == player2.move) {\r\n            result = GameResult.Draw;\r\n        } else if (\r\n            (player1.move == Move.Rock && player2.move == Move.Scissors) ||\r\n            (player1.move == Move.Paper && player2.move == Move.Rock) ||\r\n            (player1.move == Move.Scissors && player2.move == Move.Paper)\r\n        ) {\r\n            result = GameResult.Player1Win;\r\n        } else {\r\n            result = GameResult.Player2Win;\r\n        }\r\n\r\n        if (player1.move > player2.move) {\r\n            userTokens[_player1] = userTokens[_player1].add(betFee.mul(2));\r\n            emit GameFinished(\r\n                \"You won! Your reward was saved in your earnings\",\r\n                player1.move,\r\n                player2.move\r\n            );\r\n        } else if (player1.move < player2.move) {\r\n            userTokens[_player2] = userTokens[_player2].add(betFee.mul(2));\r\n            emit GameFinished(\r\n                \"You lost, better luck next time\",\r\n                player1.move,\r\n                player2.move\r\n            );\r\n        } else if (player1.move == player2.move) {\r\n            userTokens[_player1] = userTokens[_player1].add(betFee);\r\n            userTokens[_player2] = userTokens[_player2].add(betFee);\r\n\r\n            emit GameFinished(\r\n                \"Draw!, the bets were returned to the earnings of both players\",\r\n                player1.move,\r\n                player2.move\r\n            );\r\n        }\r\n    }\r\n}\r\n",
  "sourcePath": "C:/Users/Jaciel Gonzalez/Desktop/blockchain/rps/contracts/contracts/RockPaperScissors.sol",
  "compiler": {
    "name": "solc",
    "version": "0.8.0+commit.c7dfd78e.Emscripten.clang"
  },
  "schemaVersion": "3.4.1",
  "updatedAt": "2021-09-29T04:48:28.434Z",
  "networkType": "ethereum",
  "devdoc": {
    "kind": "dev",
    "methods": {
      "owner()": {
        "details": "Returns the address of the current owner."
      },
      "renounceOwnership()": {
        "details": "Leaves the contract without owner. It will not be possible to call `onlyOwner` functions anymore. Can only be called by the current owner. NOTE: Renouncing ownership will leave the contract without an owner, thereby removing any functionality that is only available to the owner."
      },
      "transferOwnership(address)": {
        "details": "Transfers ownership of the contract to a new account (`newOwner`). Can only be called by the current owner."
      }
    },
    "version": 1
  },
  "userdoc": {
    "kind": "user",
    "methods": {},
    "version": 1
  }
}